:08000000803102288731FD2F39
:100F480016302100990008008731CE278731873174
:100F5800B22787318731A4278731080070302100F4
:100F68009B0080309C009A019D011C1FBC2FBD2F47
:100F7800B92F08008731A827873120008E1FC52F79
:100F8800C62FC92F22000D15C12F22000D11C12F08
:100F98008031022822008C018D018E010830210049
:100FA8009000FF308C00FB308D00FF308E007C30CD
:100FB80023008E003B308D003F308C0024009001D0
:100FC8008D018C0180308E002100971325008C0143
:100FD8008D018E01FF3026008C00FF308D00FF3020
:100FE8008E003F3027008C00F0308D00FF308E00DF
:080FF800080020008731BE2F24
:020000040001F9
:08000000FF3FFF3FFF3FFF3F00
:04000E00E43FFF1FAD
:00000001FF
